:020000040800F2
:1000000078070020E5280008510400085304000880
:10001000570400085B0400085F04000800000000AB
:100020000000000000000000000000006304000861
:100030006504000800000000670400086904000867
:10004000FF280008FF280008FF280008FF280008F4
:10005000FF280008FF2800086B040008FF2800089C
:10006000FF280008FF280008FF280008FF280008D4
:10007000FF280008FF280008FF280008FF280008C4
:10008000FF280008FF280008FF280008FF280008B4
:10009000FF280008FF280008FF280008FF280008A4
:1000A000FF280008FF280008FF280008FF28000894
:1000B000FF280008FF280008FF280008FF28000884
:1000C000FF280008FF280008FF280008FF28000874
:1000D000FF280008C5500008FF280008FF28000876
:1000E000FF280008FF280008FF280008FF28000854
:1000F000FF280008FF280008FF280008FF28000844
:10010000FF280008FF280008FF280008FF28000833
:10011000FF280008574C0008FF280008FF280008A7
:10012000FF280008FF280008FF280008FF28000813
:1001300000F002F800F03FF80AA090E8000C8244BA
:100140008344AAF10107DA4501D100F034F8AFF297
:10015000090EBAE80F0013F0010F18BFFB1A43F0A5
:1001600001031847B85E0000D85E0000103A24BFB3
:1001700078C878C1FAD8520724BF30C830C144BF0C
:1001800004680C607047000000230024002500264E
:10019000103A28BF78C1FBD8520728BF30C148BFEA
:1001A0000B607047642905F08980002070471FB5F7
:1001B0001FBD10B510BD05F073F91146FFF7F7FF2D
:1001C00000F02BF805F091F903B4FFF7F2FF03BC40
:1001D00004F06AFF10B59348007802281CD100BFD4
:1001E000042091490860202090494861086104205A
:1001F0008D49091F086020208C494861086100BFB3
:1002000000F022FD8A4908700846017889A005F0AF
:1002100015F800208349087010BD00BF4FF4165137
:10022000482004F08AFF00F0C8FB00F031FC00BF5A
:1002300000F07AFC0128FBD104F00CFC04F072FC05
:10024000814804F0C1FC04F0FAFE00F065FC0020D7
:10025000744908707D49087000F0B1FF02F0D2FACD
:100260008FE000F0E1FFFFF7B5FF4FF47A7004F084
:100270002DFCFFF7AFFF4FF47A7004F027FC01F07C
:1002800019F801F05DF801F0A1F801F0E5F801F0CE
:1002900029F901F06DF901F0B1F901F0F5F901F07A
:1002A00039FA01F07DFAFFF795FF01F0BFFA01F08E
:1002B00003FB65E05E480078012811D163480078AF
:1002C00001280BD101F0E0F901F024FA01F068FAFD
:1002D00002F090FA01F0AAFA01F0EEFA02F098F9B1
:1002E00053480078022811D15848007801280BD1D2
:1002F00001F0CAF901F00EFA01F052FA02F072FAB6
:1003000001F094FA01F0D8FA02F0B8F94848007800
:1003100003280BD14D48007820B902F063FA02F0AF
:1003200055F903E002F066FA02F061F940480078FE
:10033000042810D14548007858B901F047F801F079
:100340008BF801F0CFF802F04DFA01F011F901F04D
:1003500055F902F078F936480078052810D13B4865
:10036000007858B901F032F801F076F801F0BAF8E7
:1003700002F040FA01F0FCF801F040F902F099F9BE
:1003800098E76EE74CE0642004F0D2FB4FF4FA707B
:1003900004F09CFBC82004F0CBFB4FF4FA7004F08F
:1003A00095FB4FF4967004F0C3FB4FF4FA7004F021
:1003B0008DFB4FF4C87004F0BBFB4FF4FA7004F0EF
:1003C00085FB4FF4FA7004F0B3FB4FF4FA7004F0BD
:1003D0007DFB4FF4167004F0ABFB4FF4FA7004F0A1
:1003E00075FB4FF4FA7004F0A3FB4FF4FA7004F0BD
:1003F0006DFB4FF4C87004F09BFB4FF4FA7004F0EF
:1004000065FB4FF4967004F093FB4FF4FA7004F020
:100410005DFBC82004F08CFB4FF4FA7004F056FB2F
:10042000B1E70000B30000201408014000100140B3
:10043000000000202F722F6E20726573756C74207F
:100440003D2025642000000040420F0001000020F4
:10045000704700BFFEE700BFFEE700BFFEE700BF3A
:10046000FEE7704770477047704710B5012002F0F3
:100470003BFB08B31148007880B920201049086080
:1004800008201049086001200C49087008200D4917
:10049000086020200A49091F08600AE00748007820
:1004A000012806D108200749091D086002200349D8
:1004B0000870012002F029FB10BD0000B3000020ED
:1004C000140C0140101401400CB500200190009064
:1004D0006B48006840F480306949086000BF684894
:1004E000006800F4003000900198401C01900098D2
:1004F00018B90198B0F5A06FF1D16148006810F407
:10050000003F02D00120009001E000200090009800
:10051000012842D15B48006840F01000594908604A
:100520000846006820F0030008600846006840F0B4
:1005300002000860524840685149486008464068D7
:1005400048600846406840F480604860084640685B
:1005500020F47C1048600846406840F4E810486089
:100560000846006840F08070086000BF444800689A
:1005700010F0007FFAD04248406820F00300404964
:1005800048600846406840F00200486000BF3C48B0
:10059000406800F00C000828F9D10CBD10B5FFF739
:1005A00093FF10BD10B53648006840F00100344993
:1005B00008600846406834490840314948600846A8
:1005C0000068324908402E4908600846006820F457
:1005D000802008600846406820F4FE0048604FF420
:1005E0001F008860FFF7DAFF4FF0006028490860BD
:1005F00010BD10B5002100200022214B5B6803F0E4
:100600000C0121B1042906D0082928D107E0214B8B
:10061000214C236027E01F4B1F4C236023E0184B25
:100620005B6803F47010164B5B6803F4803202239E
:1006300003EB904022B9194B4343174C23600DE064
:100640000F4B5B6813F4003F04D0144B4343124C30
:10065000236003E00F4B43430F4C236003E00D4B3B
:100660000D4C236000BF00BF054B5B68C3F3031351
:100670000B4CE15C084B1B68CB40074C236010BD62
:1006800000100240002002400000FFF8FFFFF6FECD
:1006900008ED00E000127A000400002000093D008F
:1006A0000800002001B502E00098401E009000986C
:1006B0000028F9D108BD08B50121080203F043F86C
:1006C0000121682003F04CF810208DF8030003206E
:1006D0008DF802000220ADF800006946C24802F021
:1006E00089FD0220ADF800006946C04802F082FD95
:1006F00003208DF8020018208DF803004CF20370DF
:10070000ADF800006946BA4802F074FD4FF68070FB
:10071000ADF800006946B54802F06CFD1020ADF858
:1007200000006946B24802F065FD2020ADF80000E7
:100730006946AF4802F05EFD8020ADF800006946D2
:10074000AB4802F057FD4FF40060ADF80000694679
:10075000A74802F04FFD0221A34802F0F8FD08BDB2
:1007600000B597B002200190002002900520039070
:1007700000200490059006904FF0805007900020D4
:100780000890099008200A9010200B9000200C90EF
:100790000E900F9010904FF4805011900020129006
:1007A0001390149001A81590169008A802F005FA6D
:1007B0000121002002F062FB17B000BD10B502213C
:1007C0008A4802F0C4FD8B48FFF76CFF022187487E
:1007D00002F0BBFD8748FFF765FF10BD00B5CF20D5
:1007E0004FF0C041088000208349088081200880A4
:1007F00030200880ED204FF0C041088064207E4901
:100800000880032008801220088081200880E820CA
:100810004FF0C0410880852077490880102008806B
:1008200078200880CB204107088039207249088051
:100830002C200880002008803420088002200880B6
:10084000F7204FF0C041088020206B490880EA2043
:100850004FF0C04108800020674908800880B1201F
:100860004FF0C04108800020634908801B200880A9
:10087000B620010708800A205F490880C22008804E
:10088000C020C105088035205B490880C1204FF099
:10089000C0410880112058490880C5204FF0C04150
:1008A00008804520544908800880C7204FF0C04187
:1008B0000880A22050490880F2204FF0C0410880F3
:1008C00000204D49088026200107088001204A4960
:1008D0000880E0204FF0C04108800F204649088082
:1008E00026200880242008800B2008800E20088005
:1008F0000920088054200880A8200880462008800D
:100900000C20088017200880092008800F2008800C
:100910000720088000200880E1204FF0C0410880B7
:10092000002035490880192008801B2008800420F9
:10093000088010200880072008802A20088047208F
:10094000088039200880032008800620088008805D
:1009500030200880382008800F20088036200107CA
:1009600008806820244908802A204FF0C041088070
:100970000020214908800880012008803F2008804D
:100980002B204107088000201B4908800880088030
:10099000EF2008803A204FF0C041088055201649CA
:1009A000088011204FF0C04108801248FFF77AFEFE
:1009B00029204FF0C041088000BD10B5FFF77BFE35
:1009C000FFF7CEFEFFF7FAFEFFF708FF2C20C10667
:1009D0000880002404E04FF4784007490880641C34
:1009E000B4F5963FF7D310BD000C0140001801404C
:1009F00000140140FCBF02000000026008B50121A4
:100A00003C2002F0ADFE10208DF8030003208DF88D
:100A100002004FF48070ADF800006946F84802F01B
:100A2000E9FB4FF48071F64802F08FFC0820ADF826
:100A300000006946F34802F0DDFB2020ADF800001D
:100A40006946F14802F0D6FB0C20ADF8000069467B
:100A5000EB4802F0CFFB2020ADF800006946EB48E0
:100A600002F0C8FB4FF47F40ADF8000004208DF881
:100A7000030003208DF802006946E34802F0BAFB48
:100A80000820DF4914310860DE491031086008BDD4
:100A900010B500F025FAFFF7B1FF10BD08B5012130
:100AA000042002F05DFE0120ADF8000004208DF866
:100AB000030003208DF802006946D14802F09AFB3A
:100AC00008BD08B54FF4C06001F02CFF06208DF87A
:100AD000000000208DF8010001208DF802008DF843
:100AE0000300684601F023FF08BD1CB5002108463D
:100AF00002F094FC0120009000208DF804000C20EE
:100B00008DF8050001208DF80600684601F086FF8B
:100B1000012001F0D2FF1CBD10B5FFF7BFFFFFF7AA
:100B2000E4FFFFF7CEFF10BD38B500240020009091
:100B30008021122000F0DAFA08B9002038BD0B221B
:100B40000121684600F0F2FA08B90020F6E79DF8A6
:100B50000000212814D100240DE0AD4A02EB44022C
:100B60005178AB4A12F8140000F0C0FA08B900201E
:100B7000E4E7601C84B2A74800788442EDDB01E022
:100B80000020DBE70120D9E7F0B50C46002118E092
:100B90000B464E1CF2B208E050F8226050F8237069
:100BA000BE4200DA1346561CF2B2A242F4DB50F801
:100BB000215050F8236040F8216040F823504E1C2B
:100BC000F1B2A142E4DBF0BD2DE9FE4F07468846B5
:100BD00091460097CDF80480CDF80890032168462F
:100BE000FFF7D2FF029D009E019C2B462246314614
:100BF00089A004F023FB05EB040A0AEBDA7043102A
:100C0000A21B291B8BA004F019FB281B142809DA4E
:100C1000A01B142806DA28193044032190FBF1F0B8
:100C2000BDE8FE8F281B142804DA291901EBD170C6
:100C30004010F5E7A01B142804DAA21902EBD270C9
:100C40004010EDE70020EBE72DE9F04F97B00024CE
:100C500000250027A346002016901590002610902E
:100C60004FF0010882460F90302103A804F062FB88
:100C70000020029001906EA004F0E0FA00BF7DE039
:100C800008EB48000001A84201D10120109008EBB8
:100C900048000001401CA8420CD15246414672A0B7
:100CA00004F0CCFA08F1010000F0FF0800201090D9
:100CB0008246002600275DE000BF4FF0000920209B
:100CC0005249486150480830006800F47F492020AC
:100CD000086148614C4808300068C0F3072040EACA
:100CE00009092020086100BF09F01F001490C9F312
:100CF000451013904FEAD920129014980C2805DA69
:100D00001398192802DA12980C281EDB4FF6FF7090
:100D10001190109850B3082E15DD1E2E13DA01978E
:100D2000DDE90171C81900EBD0714A10A8F1010189
:100D300001EB410103AB03EB810141F82A200AF1E9
:100D4000010000F0FF0A002610E00020119010982A
:100D500060B106B90297701CC6B24FF47F40119083
:100D6000062E03DD1E2E01DAFF2011904349119853
:100D700008807F1CB7F5A07F9EDB6D1CF02DFFF671
:100D80007FAF002513E005EB45000DF10C0C0CEBDB
:100D90008000836805EB45000CEB8000426805EBA2
:100DA00045005CF8201036A004F048FA6D1C042DB4
:100DB000E9DB03990698A0EB010B06990998401A04
:100DC000169009990C98401A15905846DDE915219E
:100DD000FFF7FAFE0446009459462CA0DDE91532CF
:100DE00004F02CFA0F2C05DD502C03DC022017B088
:100DF000BDE8F08F062C59DD0F2C57DC0120F6E7FB
:100E00000008014000140140000C014000100140A6
:100E100018000020B20000206D696E3D256420207E
:100E20006D6564756D3D256420206D61783D256498
:100E30000D0A00006D61782D6D6564756D3D25644A
:100E400020206D6564756D2D6D696E3D25642020D3
:100E500020286D61782B6D6564756D292F323D25D5
:100E600064200D0A000000003F25643F3F3F3F3FE4
:100E70003F3F25643F3F3F0D0A0000000000026035
:100E800025640925640925640D0A0000613D256477
:100E90002020623D25642020633D256420202073AE
:100EA0006C6F70653D2564200D0A000014F1060F7B
:100EB00003DD062C01DC032099E714F10F0F04DD9C
:100EC00014F1060F01DC042091E714F1500F04DD4A
:100ED00014F10F0F01DC052089E7032087E70000EC
:100EE00008B50121102002F03BFCC020ADF8000045
:100EF00003208DF8020014208DF803006946AA48EB
:100F000002F078F908BD4FF4C87001E0411E88B2C4
:100F10000028FBD1704710B58021A34802F015FAD4
:100F20004021A14802F011FAFFF7EDFF80219E4811
:100F300002F0F1F908B9002010BD80219A4802F0B2
:100F400006FAFFF7E0FF8021974802F0E4F908B1C4
:100F50000020F1E78021944802F0F9F9FFF7D3FF70
:100F60000120E9E710B540218F4802F0F0F9FFF7C2
:100F7000CAFF80218C4802F0EAF9FFF7C4FF402144
:100F8000894802F0E2F9FFF7BEFF8021864802F0AF
:100F9000DCF9FFF7B8FF10BD10B54021824802F020
:100FA000D6F9FFF7B0FF80217F4802F0D0F9FFF7B4
:100FB000AAFF40217C4802F0C8F9FFF7A4FF4021B6
:100FC000794802F0C4F9FFF79EFF10BD10B540212B
:100FD000754802F0BCF9FFF796FF8021724802F0D5
:100FE000B4F9FFF790FF40216F4802F0AEF9FFF728
:100FF0008AFF40216C4802F0AAF9FFF784FF10BD78
:1010000010B54021684802F0A2F9FFF77CFF80216B
:10101000654802F09AF9FFF776FF4021624802F036
:1010200094F9FFF770FF80215F4802F074F928B14E
:1010300040215D4802F08BF9002010BD40215A4844
:1010400002F085F90120F8E770B5044608251BE099
:101050004021554802F07BF9FFF755FF14F0800F4F
:1010600004D08021504802F070F903E080214E48FE
:1010700002F06DF96006040EFFF745FF40214A4873
:1010800002F063F9FFF73FFF2800A5F10101CDB29F
:10109000DED14021444802F05AF970BD70B50825F0
:1010A00000248021404802F050F914E06006040E4C
:1010B00040213D4802F04BF9FFF725FF40213A4817
:1010C00002F043F9FFF71FFF8021374802F023F9B0
:1010D00008B144F001042800A5F10101CDB2E5D129
:1010E0004021314802F033F9204670BD70B5044606
:1010F0000D46FFF710FF08B9002070BD4220FFF732
:10110000A3FFFFF77DFF18B9FFF72CFF0020F4E7DE
:10111000E0B2FFF799FFFFF773FF2846FFF794FF50
:10112000FFF76EFFFFF71EFF0120E6E770B50546EB
:101130000C461646FFF7EFFE08B9002070BD4220AE
:10114000FFF782FFFFF75CFF18B9FFF70BFF0020E6
:10115000F4E73046FFF778FFFFF752FFFFF702FF93
:10116000FFF7D9FE08B90020E8E74320FFF76CFF3E
:10117000FFF746FF18B9FFF7F5FE0020DEE70CE0A9
:10118000FFF78CFF2870012C02D1FFF71FFF01E051
:10119000FFF702FF6D1C601E84B2002CF0D1FFF738
:1011A000E1FE0120CAE700000010014001B502E0A5
:1011B0000098401E009000980028F9D108BD08B59D
:1011C0000121102002F0CCFA4FF40050ADF80000DD
:1011D00048208DF803006946124802F00BF808BD5C
:1011E00070B505460E4614463146284602F093F87F
:1011F000A04214D142F21070FFF7D8FF31462846C2
:1012000002F089F8A04208D100BF3146284602F01A
:1012100082F8A042F9D0002070BD0120FCE7012037
:10122000FAE700000010014010B500243FE09622CC
:101230004FF40071012003F066FE96224FF4EB712B
:10124000022003F060FE962240F20B11032003F00F
:101250005AFE96224FF4E271042003F054FE9622C7
:1012600040F2F711052003F04EFE96224FF4007174
:101270000B2003F048FE96224FF409710C2003F076
:1012800042FE962240F2DB210D2003F03CFE962226
:1012900040F24A210E2003F036FE96224FF40171EF
:1012A0000F2003F030FE03F07FFE601CC4B2142C4C
:1012B000BDDB10BD10B500243FE096224FF4007155
:1012C000012003F020FE96224FF4EA71022003F081
:1012D0001AFE96224FF48571032003F014FE962225
:1012E00040F2C511042003F00EFE96224FF41A714D
:1012F000052003F008FE96224FF400710B2003F046
:1013000002FE962240F221210C2003F0FCFD9622E1
:1013100040F2DB210D2003F0F6FD96224FF413710D
:101320000E2003F0F0FDC82240F21B210F2003F035
:10133000EAFD03F039FE601CC4B2142CBDDB10BD05
:1013400010B500243FE096224FF40071012003F015
:10135000DAFD96224FF4EC71022003F0D4FD9622C0
:1013600040F20D11032003F0CEFD962240F2C5118C
:10137000042003F0C8FD962240F2F711052003F087
:10138000C2FD96224FF400710B2003F0BCFD9622A3
:101390004FF408710C2003F0B6FD962240F2D921DB
:1013A0000D2003F0B0FD962240F24E210E2003F0F6
:1013B000AAFD962240F246210F2003F0A4FD03F07F
:1013C000F3FD601CC4B2142CBDDB10BD10B50024AD
:1013D0003FE032224FF40071012003F094FD3222ED
:1013E00040F2CB11022003F08EFD322240F23B117D
:1013F000032003F088FD32224FF4E371042003F050
:1014000082FD322240F25221052003F07CFD32227F
:101410004FF400710B2003F076FD32224FF4F1718E
:101420000C2003F070FD322240F2E7210D2003F082
:101430006AFD322240F24E210E2003F064FD32227A
:1014400040F243210F2003F05EFD03F0ADFD601C70
:10145000C4B2142CBDDB10BD10B500243FE06422E3
:101460004FF40071012003F04EFD28224FF4E57186
:10147000022003F048FD282240F23D11032003F032
:1014800042FD28224FF4E571042003F03CFD2822A0
:1014900040F23A21052003F036FD28224FF4007176
:1014A0000B2003F030FD28224FF4F0710C2003F0E4
:1014B0002AFD282240F2E5210D2003F024FD2822F8
:1014C0004FF416710E2003F01EFD282240F20F216A
:1014D0000F2003F018FD03F067FD601CC4B2372C29
:1014E000BDDB10BD10B500243FE050224FF4007169
:1014F000012003F008FD50224FF4E871022003F0B0
:1015000002FD502240F23F11032003F0FCFC502268
:1015100040F2A511042003F0F6FC50224FF4FD71B7
:10152000052003F0F0FC50224FF400710B2003F073
:10153000EAFC502240F2DF110C2003F0E4FC5022C0
:1015400040F2E1210D2003F0DEFC502240F27D212B
:101550000E2003F0D8FC50224FF400710F2003F04E
:10156000D2FC03F021FD601CC4B2372CBDDB10BDE2
:1015700010B500243FE096224FF40071012003F0E3
:10158000C2FC962240F2CB11022003F0BCFC962252
:101590004FF49F71032003F0B6FC96224FF4CF71F5
:1015A000042003F0B0FC962240F2E911052003F07C
:1015B000AAFC96224FF400710B2003F0A4FC9622A3
:1015C00040F2EF110C2003F09EFC96224FF438718C
:1015D0000D2003F098FC962240F27B210E2003F0B0
:1015E00092FC962240F2A3110F2003F08CFC03F032
:1015F000DBFC601CC4B2142CBDDB10BD10B5002494
:101600003FE096224FF40071012003F07CFC96220B
:1016100040F2CB11022003F076FC96224FF49F712A
:10162000032003F070FC96224FF4CF71042003F0E6
:101630006AFC96224FF4E171052003F064FC9622C7
:101640004FF400710B2003F05EFC962240F2EF1184
:101650000C2003F058FC96224FF438710D2003F053
:1016600052FC962240F27B210E2003F04CFC962285
:1016700040F2A3110F2003F046FC03F095FC601C20
:10168000C4B2142CBDDB10BD10B500243FE05022C5
:101690004FF40071012003F036FC502240F21E216D
:1016A000022003F030FC502240F21911032003F015
:1016B0002AFC50224FF4D971042003F024FC50225C
:1016C0004FF4E071052003F01EFC50224FF400712E
:1016D0000B2003F018FC502240F235210C2003F0BF
:1016E00012FC502240F2C5210D2003F00CFC5022C8
:1016F00040F23A210E2003F006FC502240F2D311B2
:101700000F2003F000FC03F04FFC601CC4B2372C28
:10171000BDDB10BD10B500243FE032224FF4007154
:10172000012003F0F0FB32224FF40871022003F095
:10173000EAFB322240F21B11032003F0E4FB3222C9
:101740004FF4D471042003F0DEFB322240F2F11199
:10175000052003F0D8FB32224FF400710B2003F078
:10176000D2FB322240F236210C2003F0CCFB322295
:1017700040F2C3210D2003F0C6FB322240F2392192
:101780000E2003F0C0FB32224FF4E3710F2003F070
:10179000BAFB03F009FC601CC4B2372CBDDB10BDE2
:1017A00010B500243FE096224FF40071012003F0B1
:1017B000AAFB962240F23221022003F0A4FB9622DB
:1017C00040F21911032003F09EFB962240F277119C
:1017D000042003F098FB96224FF4FB71052003F0E0
:1017E00092FB96224FF400710B2003F08CFB9622A3
:1017F0004FF408710C2003F086FB962240F2B321CF
:101800000D2003F080FB962240F25D210E2003F0B4
:101810007AFB96224FF4FD710F2003F074FB03F066
:10182000C3FB601CC4B2232CBDDB10BD10B500246B
:101830003FE096224FF40071012003F064FB9622F2
:1018400040F23221022003F05EFB96224FF48D71AC
:10185000032003F058FB96224FF4BD71042003F0DF
:1018600052FB96224FF41A71052003F04CFB96228E
:1018700040F2FF110B2003F046FB96224FF4087153
:101880000C2003F040FB96224FF42C710D2003F046
:101890003AFB962240F25B210E2003F034FB9622A5
:1018A00040F216210F2003F02EFB03F07DFB601C9D
:1018B000C4B2192CBDDB10BD10B500243FE03222AC
:1018C0004FF40071012003F01EFB32224FF4EC7143
:1018D000022003F018FB322240F20D11032003F026
:1018E00012FB322240F2C511042003F00CFB32221D
:1018F00040F2F711052003F006FB32224FF400718D
:101900000B2003F000FB32224FF408710C2003F08F
:10191000FAFA322240F2D9210D2003F0F4FA3222F1
:1019200040F253210E2003F0EEFA322240F246211B
:101930000F2003F0E8FA03F037FB601CC4B2192C47
:10194000BDDB10BD10B500243FE0962240F2E5114A
:10195000012003F0D8FA962240F2C311022003F0CE
:10196000D2FA96224FF49F71032003F0CCFA96220C
:101970004FF4D271042003F0C6FA962240F22921D6
:10198000052003F0C0FA962240F2FD110B2003F06F
:10199000BAFA962240F221210C2003F0B4FA9622E2
:1019A00040F2D7210D2003F0AEFA96224FF41371C6
:1019B0000E2003F0A8FA96224FF411710F2003F0C5
:1019C000A2FA03F0F1FA601CC4B2142CBDDB10BD06
:1019D00010B500243EE028224FF4F371012003F0FB
:1019E00092FA282240F2C111022003F08CFA282238
:1019F000D100032003F087FA282240F2A511042029
:101A000003F081FA28224FF4FF71052003F07BFADE
:101A1000282240F2F7110B2003F075FA282240F239
:101A200021210C2003F06FFA282240F2D7210D204B
:101A300003F069FA282240F252210E2003F063FAE3
:101A4000282240F205210F2003F05DFA03F0ACFAE2
:101A5000601CC4B2192CBEDB10BD10B500243FE0E1
:101A600096224FF4F271012003F04DFA96224FF4C2
:101A7000E071022003F047FA96224FF4A071032090
:101A800003F041FA96224FF4D371042003F03BFA9D
:101A9000962240F2E511052003F035FA962240F235
:101AA000F7110B2003F02FFA962240F221210C208F
:101AB00003F029FA962240F2D7210D2003F023FAF1
:101AC000962240F251210E2003F01DFA96224FF487
:101AD000C9710F2003F017FA03F066FA601CC4B254
:101AE000142CBDDB10BD10B500243FE096224FF44E
:101AF000F371012003F007FA96224FF4F0710220EF
:101B000003F001FA96224FF49371032003F0FBF9DE
:101B1000962240F2A111042003F0F5F996224FF429
:101B2000F271052003F0EFF9962240F2F7110B2035
:101B300003F0E9F9962240F211210C2003F0E3F9B9
:101B400096224FF433710D2003F0DDF9962240F216
:101B50006B210E2003F0D7F996224FF4C9710F20A4
:101B600003F0D1F903F020FA601CC4B2142CBDDBE1
:101B700010BD10B500243FE096224FF4F371012010
:101B800003F0C1F996224FF4F271022003F0BBF981
:101B900096224FF49471032003F0B5F996224FF486
:101BA000CD71042003F0AFF996224FF4E1710520C6
:101BB00003F0A9F9962240F2F7110B2003F0A3F9E4
:101BC000962240F211210C2003F09DF996224FF449
:101BD00033710D2003F097F9962240F26B210E200D
:101BE00003F091F996224FF4C9710F2003F08BF99D
:101BF00003F0DAF9601CC4B2142CBDDB10BD10B5C3
:101C000000243FE0962240F20321012003F07BF9FB
:101C1000962240F2DF11022003F075F9962240F27D
:101C20002911032003F06FF996224FF4DA71042092
:101C300003F069F996224FF4DE71052003F063F991
:101C4000962240F21B210B2003F05DF9962240F210
:101C50003D210C2003F057F9962240F2C2210D20BD
:101C600003F051F996224FF417710E2003F04BF94F
:101C7000962240F2D7110F2003F045F903F094F9B2
:101C8000601CC4B2142CBDDB10BD10B500243FE0B5
:101C9000322240F20921012003F035F9322240F2CC
:101CA000DF11022003F02FF9322240F22911032024
:101CB00003F029F932224FF4D771042003F023F9FD
:101CC000322240F2FB11052003F01DF9322240F2CE
:101CD0001A210B2003F017F9322240F23F210C2089
:101CE00003F011F932224FF430710D2003F00BF99B
:101CF000322240F25B210E2003F005F9322240F23D
:101D000002210F2003F0FFF803F04EF9601CC4B26B
:101D1000142CBDDB10BD10B500243FE0962240F22C
:101D20000921012003F0EFF8962240F2DF11022092
:101D300003F0E9F8962240F22911032003F0E3F8BA
:101D4000962240F2AF11042003F0DDF8962240F213
:101D50006E21052003F0D7F896224FF407710B206F
:101D600003F0D1F896224FF410710C2003F0CBF859
:101D700096224FF430710D2003F0C5F8962240F200
:101D80005A210E2003F0BFF8962240F21B210F20AB
:101D900003F0B9F803F008F9601CC4B2142CBDDBE1
:101DA00010BD10B5002439E0962240F2EF11022058
:101DB00003F0A9F896224FF49A71032003F0A3F8D8
:101DC000962240F29511042003F09DF8962240F2ED
:101DD0006E21052003F097F8962240F21A210B207D
:101DE00003F091F896224FF408710C2003F08BF861
:101DF000962240F2DA210D2003F085F8962240F277
:101E00005F210E2003F07FF896224FF407710F2018
:101E100003F079F803F0C8F8601CC4B20F2CC3DBE0
:101E200010BD10B500243FE0962240F209210120A8
:101E300003F069F8962240F2EF11022003F063F8F4
:101E400096224FF49A71032003F05DF8962240F237
:101E50009511042003F057F8962240F26E210520D8
:101E600003F051F8962240F21A210B2003F04BF8B0
:101E700096224FF407710C2003F045F896224FF498
:101E800036710D2003F03FF8962240F266210E20B5
:101E900003F039F8962240F23E210F2003F033F888
:101EA00003F082F8601CC4B2142CBDDB10BD10B569
:101EB00000243FE0962240F20B21012003F023F89A
:101EC00096224FF4EB71022003F01DF8962240F2A7
:101ED0000B11032003F017F896224FF4E27104204F
:101EE00003F011F8962240F2F711052003F00BF8E9
:101EF00096224FF400710B2003F005F896224FF460
:101F000009710C2002F0FFFF962240F2DB210D2028
:101F100002F0F9FF962240F24A210E2002F0F3FF70
:101F200096224FF401710F2002F0EDFF03F03CF810
:101F3000601CC4B2642CBDDB10BD10B500243FE0B2
:101F4000962240F20B21012002F0DDFF96224FF491
:101F5000EA71022002F0D7FF96224FF48571032028
:101F600002F0D1FF962240F2C511042002F0CBFF0F
:101F700096224FF41A71052002F0C5FF96224FF405
:101F800000710B2002F0BFFF962240F221210C20AD
:101F900002F0B9FF962240F2DB210D2002F0B3FFE0
:101FA00096224FF413710E2002F0ADFFC82240F2CA
:101FB0001B210F2002F0A7FF02F0F6FF601CC4B245
:101FC000642CBDDB10BD10B500243FE0962240F22A
:101FD0000B21012002F097FF96224FF4EC710220B2
:101FE00002F091FF962240F20D11032002F08BFFC8
:101FF000962240F2C511042002F085FF962240F29D
:10200000F711052002F07FFF962240F2FF110B200E
:1020100002F079FF96224FF408710C2002F073FF52
:10202000962240F2D9210D2002F06DFF962240F257
:102030004E210E2002F067FF962240F246210F202B
:1020400002F061FF02F0B0FF601CC4B2322CBDDBB5
:1020500010BD10B500243FE0322240F20B210120D8
:1020600002F051FF322240F2CB11022002F04BFF6E
:10207000322240F23B11032002F045FF32224FF49E
:10208000E371042002F03FFF322240F2522105208A
:1020900002F039FF32224FF400710B2002F033FFBF
:1020A00032224FF4F1710C2002F02DFF322240F267
:1020B000E7210D2002F027FF322240F24E210E20B0
:1020C00002F021FF322240F243210F2002F01BFFD9
:1020D00002F06AFF601CC4B2642CBDDB10BD10B5F9
:1020E00000243FE0642240F20B21012002F00BFFAC
:1020F00032224FF4E571022002F005FF322240F255
:102100003D11032002F0FFFE322240F2C7110420ED
:1021100002F0F9FE322240F23A21052002F0F3FEED
:1021200032224FF400710B2002F0EDFE32224FF408
:10213000F0710C2002F0E7FE322240F2E5210D2082
:1021400002F0E1FE32224FF416710E2002F0DBFEA7
:10215000322240F20F210F2002F0D5FE02F024FFC0
:10216000601CC4B2642CBDDB10BD10B500243FE080
:10217000962240F20B21012002F0C5FE96224FF478
:10218000E871022002F0BFFE962240F23F110320C8
:1021900002F0B9FE962240F2A511042002F0B3FE2F
:1021A00096224FF4FD71052002F0ADFE96224FF409
:1021B00000710B2002F0A7FE962240F2DF110C20E6
:1021C00002F0A1FE962240F2E1210D2002F09BFEDA
:1021D000962240F27D210E2002F095FE96224FF4C9
:1021E00000710F2002F08FFE02F0DEFE601CC4B210
:1021F000642CBDDB10BD10B500243FE0962240F2F8
:102200000B21012002F07FFE962240F2CB1102202A
:1022100002F079FE96224FF49F71032002F073FEC4
:1022200096224FF4CF71042002F06DFE962240F208
:10223000E911052002F067FE96224FF400710B2091
:1022400002F061FE962240F2EF110C2002F05BFEDC
:1022500096224FF438710D2002F055FE962240F27E
:102260007B210E2002F04FFE962240F2A3110F2098
:1022700002F049FE02F098FE601CC4B2642CBDDB83
:1022800010BD10B500243FE0962240F20B21012042
:1022900002F039FE962240F2CB11022002F033FE0A
:1022A00096224FF49F71032002F02DFE96224FF4E8
:1022B000CF71042002F027FE96224FF4E171052031
:1022C00002F021FE96224FF400710B2002F01BFE5B
:1022D000962240F2EF110C2002F015FE96224FF4E8
:1022E00038710D2002F00FFE962240F27B210E2065
:1022F00002F009FE962240F2A3110F2002F003FE25
:1023000002F052FE601CC4B2642CBDDB10BD10B5DF
:1023100000243FE0502240F20B21012002F0F3FDA7
:10232000502240F21E21022002F0EDFD502240F228
:102330001911032002F0E7FD50224FF4D971042057
:1023400002F0E1FD50224FF4E071052002F0DBFDC8
:1023500050224FF400710B2002F0D5FD502240F2C4
:1023600035210C2002F0CFFD502240F2C5210D2076
:1023700002F0C9FD502240F23A210E2002F0C3FDC6
:10238000502240F2D3110F2002F0BDFD02F00CFEEE
:10239000601CC4B2642CBDDB10BD10B500243FE04E
:1023A000322240F20B21012002F0ADFD32224FF427
:1023B0000871022002F0A7FD322240F21B11032017
:1023C00002F0A1FD32224FF4D471042002F09BFDF3
:1023D000322240F2F111052002F095FD32224FF435
:1023E00000710B2002F08FFD322240F236210C20CA
:1023F00002F089FD322240F2C3210D2002F083FD5C
:10240000322240F239210E2002F07DFD32224FF4BB
:10241000E3710F2002F077FD02F0C6FD601CC4B22C
:10242000642CBDDB10BD10B500243FE096224FF4B4
:102430000271012002F067FD962240F23221022053
:1024400002F061FD962240F21911032002F05BFDBB
:10245000962240F27711042002F055FD96224FF4A7
:10246000FB71052002F04FFD96224FF400710B2006
:1024700002F049FD96224FF408710C2002F043FD52
:10248000962240F2B3210D2002F03DFD962240F24B
:102490005D210E2002F037FD96224FF4FD710F20D2
:1024A00002F031FD02F080FD601CC4B2642CBDDB83
:1024B00010BD10B500243FE0962240F20921012012
:1024C00002F021FD962240F23221022002F01BFD93
:1024D00096224FF48D71032002F015FD96224FF4E1
:1024E000BD71042002F00FFD96224FF41A710520F1
:1024F00002F009FD962240F2FF110B2002F003FDCD
:1025000096224FF408710C2002F0FDFC96224FF445
:102510002C710D2002F0F7FC962240F25B210E2078
:1025200002F0F1FC962240F216210F2002F0EBFCA3
:1025300002F03AFD601CC4B2642CBDDB10BD10B5C6
:1025400000243FE0322240F20B21012002F0DBFCAC
:1025500032224FF4EC71022002F0D5FC322240F21C
:102560000D11032002F0CFFC322240F2C5110420ED
:1025700002F0C9FC322240F2F711052002F0C3FC40
:1025800032224FF400710B2002F0BDFC32224FF4D6
:1025900008710C2002F0B7FC322240F2D9210D2044
:1025A00002F0B1FC322240F253210E2002F0ABFCCB
:1025B000322240F246210F2002F0A5FC02F0F4FC8A
:1025C000601CC4B2642CBDDB10BD000010B5FEF76A
:1025D000FDFEFEF741FFFEF785FFFDF7FBFDFEF771
:1025E000C7FFFFF70BF801205A49087010BD10B55E
:1025F000FFF74AF8FFF78EF8FFF7D2F8FDF7EAFD8C
:10260000FFF714F9FFF758F900205249087010BD80
:1026100010B5FFF797F9FFF7DBF9FFF71EFAFFF7A1
:1026200062FAFFF7A6FAFFF72FF8FFF773F8FFF744
:10263000B7F8FDF7CFFDFFF7F9F8FFF73DF90020F8
:102640004449087010BD10B5FFF7D9FAFFF71DFB1C
:10265000FFF761FBFFF7A5FBFFF7E3FBFEF7B6FE15
:10266000FEF7FAFEFEF73EFFFDF7B4FDFEF780FF32
:10267000FEF7C4FF01203749087010BD10B5FFF701
:1026800061F9FFF7A5F9FFF7E8F9FFF72CFAFFF773
:1026900070FAFEF7F9FFFFF73DF8FFF781F8FDF755
:1026A00099FDFFF7C3F8FFF707F9002029490870E3
:1026B00010BD10B5FFF7A3FAFFF7E7FAFFF72BFB02
:1026C000FFF76FFBFFF7ADFBFEF780FEFEF7C4FEE2
:1026D000FEF708FFFEF74CFFFEF790FFFFF78FFABB
:1026E000FFF7D3FAFFF717FBFFF75BFBFFF799FB49
:1026F000FEF76CFEFEF7B0FEFEF7F4FEFDF76AFD96
:10270000FEF736FFFEF77AFF01201249087010BD70
:1027100010B5FFF79EFCFFF7E2FCFFF726FDFDF783
:1027200059FDFFF768FDFFF7ACFD0120094908706E
:1027300010BD10B5FFF7EBFDFFF72FFEFFF773FE9F
:10274000FDF748FDFFF7B5FEFFF7F9FE0020014950
:10275000087010BD010000202DE9F05F8246504650
:1027600003F08CF98046574A574B02F09FFF06460C
:102770000022564B02F0C4FE044602F069FF1FFA25
:1027800080FB584603F0EAFA8246504603F0C6FA48
:1027900084B221464E4801F015FFBDE8F09F2DE9B7
:1027A000F05F8246504603F069F98046454A464B41
:1027B00002F07CFF06460022444B02F0A1FE0446D4
:1027C00002F046FF1FFA80FB584603F0C7FA824624
:1027D000504603F0A3FA84B221463D4801F0F0FED2
:1027E000BDE8F09F10B53B48FFF7B6FF3A48FFF74A
:1027F000D6FF10BD10B53848FFF7AEFF3548FFF7DC
:10280000CEFF10BD00B589B00121022000F0B5FF58
:1028100001210C2000F0A4FFC020ADF80400182016
:102820008DF8070003208DF8060001A92B4800F061
:10283000E1FC0320ADF8040001A9294800F0DAFC0E
:1028400042F20F70ADF81C008F20ADF81800002088
:10285000ADF81E00ADF81A0006A91D4801F0BCF83D
:102860006020ADF808000120ADF80A000020ADF8A6
:102870000E00ADF8100002A9154801F0EAF802A90F
:10288000134801F028F902A9114801F071F902A9D1
:102890000F4801F0B8F908210D4801F029FD082181
:1028A0000B4801F02EFD0821094801F037FD0821F1
:1028B000074801F03CFD0121054801F0E9FB09B0A2
:1028C00000BD00003D0AD7A3703D164000206F40B8
:1028D000000400400000AA420000BE42000801407F
:1028E000000C01400948804709480047FEE7FEE721
:1028F000FEE7FEE7FEE7FEE7FEE7FEE7FEE7FEE7B0
:1029000004480549054A064B70470000A505000824
:1029100031010008780100207807002078030020AA
:102920007803002031490143314A1160704770B586
:10293000002100230F22C4780CB32D4C246804F42A
:10294000E064C4F5E064210AC1F10403CA4044789C
:1029500004FA03F18478144021430901254C0678D8
:10296000A155047804F01F050124AC4005786D11D1
:102970004FF0E02606EB8505C5F8004109E0047834
:1029800004F01F050124AC401B4D0678761145F874
:10299000264070BD194A0A400243154B1B1F1A609E
:1029A000704739B1124A121D12680243104B1B1DA9
:1029B0001A6006E00E4A121D126882430C4B1B1D62
:1029C0001A607047042808D14FF0E021096941F0EE
:1029D00004014FF0E022116107E04FF0E0210969A6
:1029E00021F004014FF0E022116170470000FA0568
:1029F0000CED00E000E400E080E100E080FFFF1F5C
:102A0000002044490860091D0860091D0860091D6F
:102A1000086041483F4914310860704700213D4932
:102A20008279002A3AD00A46126803689A430B4614
:102A30001A600A1D126803689A430B1D1A60027916
:102A400011440A6803681A430A60324A083212685D
:102A500003689A432F4B08331A601A1D12680368E3
:102A60009A432C4B0C331A604279102A0ED11A1F4C
:102A7000126803681A43274B08331A601A1D12683C
:102A800003681A43234B0C331A600DE02149427945
:102A900011440A6803681A430A6005E00279114488
:102AA0000A6803689A430A60704700210160017157
:102AB0000C2141710021817170471649103109685C
:102AC0000143144A10321160704701460020114A38
:102AD000143212680A4201D0012000E00020704741
:102AE0000C49143108607047014600200022094B50
:102AF0001B6803EA0102074B14331B680B4202D028
:102B00000AB1012000E0002070470249143108603A
:102B10007047000000040140FFFF0F0030B943F28E
:102B2000DB014FF0204242F8201005E043F2D201D1
:102B30004FF0204242F820106FF07042411C4FF0DD
:102B4000204343F8212011461A4602EB8002C2F8C6
:102B50000411704710280AD118214FF02042116645
:102B6000402151664FF0FC319166D16610E018218A
:102B7000F84A11604FF040014FF02042C2F8841033
:102B80004FF0FC31F44A11604FF02042C2F88C1033
:102B900070471820F14908604FF000004FF02041C5
:102BA000C1F8A4004FF0FC30ED49086001F10401C8
:102BB000086001F1040108607047D0E90112114377
:102BC000C26811430269114342691143826911438A
:102BD000C2691143026A1143426A1143826A114376
:102BE000C26A1143026B11434FF02043026843F85D
:102BF00022108168082908D11A46016852F821106C
:102C000041F04001026843F82210416B0968426BB1
:102C1000526841EA0211426B926841EA0221426B1A
:102C2000928941EA0241426B128A41EA0251426BA7
:102C3000127D41EA0261426B926911430268521CA3
:102C40004FF0204343F82210C16AB1F5804F1AD1EA
:102C5000816B0968826B526841EA0211826B92684B
:102C600041EA0221826B128A41EA0251826B127D93
:102C700041EA0261826B92691143026803EB8202AE
:102C8000C2F8041108E06FF070414FF02043026871
:102C900003EB8202C2F80411704730B50021002214
:102CA0000023446844F0080485682C43C5682C431D
:102CB00005692C43456944EA4524856944EA453160
:102CC000C4692468C5696D6844EA0524C5692D890D
:102CD00044EA0544C5692D7B44EA0562046A246818
:102CE000056A6D6844EA0524056A2D8944EA0544AD
:102CF000056A2D7B44EA05630468102C05D14FF06A
:102D000020442166A266E36607E0924C21604FF002
:102D10002044C4F88820934C236030BD016841F002
:102D20001001426841EA4221826841EA42318B4AFD
:102D30001160C1680968C268526841EA0221C2682C
:102D4000128941EA0241C268127B41EA0261844A67
:102D50001160016909680269526841EA0221026949
:102D6000128941EA02410269127B41EA02617E4A0C
:102D70001160416909684269526841EA0221426969
:102D8000128941EA02414269127B41EA02614FF035
:102D90002042C2F8B010704700210160022141605A
:102DA00000218160C160016141618161C161016295
:102DB0004FF480514162490081620021C162016388
:102DC0000F21426B1160426B5160FF21426B916099
:102DD0000F21426BD160426B1161426B5161002146
:102DE000426B91610F21826B1160826B5160FF21F8
:102DF000826B91600F21826BD160826B1161826B5B
:102E000051610021826B91617047102101600021A6
:102E100041608160C160016141618161FC21C269E1
:102E20001160C2695160C2699160C269D160026A71
:102E30001160026A5160026A9160026AD160704753
:102E40000021016041608160FC21C2681160C2689C
:102E50005160C2689160C268D16002691160026904
:102E60005160026991600269D160426911604269F2
:102E70005160426991604269D160704751B14FF031
:102E8000204252F8202042F001024FF0204343F844
:102E9000202009E04FF0204252F82020334B1A4006
:102EA0004FF0204343F82020704799B1102808D1F3
:102EB0004FF02042126E42F004024FF020431A6697
:102EC0001DE0244A126842F004024FF02043C3F888
:102ED000802014E0102809D14FF02042126E234BBD
:102EE000DB1E1A404FF020431A6608E0194A1268A8
:102EF0001F4B02EA03024FF02043C3F880207047C3
:102F000040B11649096841F004014FF02042C2F86F
:102F1000A01008E011490968154A01EA02014FF0C2
:102F20002042C2F8A010704799B1102808D14FF084
:102F30002042126E42F040024FF020431A662DE00C
:102F4000044A126842F040024FF02043C3F8802048
:102F500024E00FE0800000A0880000A0A00000A0F6
:102F6000A80000A08C0000A0AC0000A0FEFF0F0095
:102F7000FBFF0F00102808D14FF02042126E684B63
:102F80001A404FF020431A6608E0664A1268644B04
:102F900002EA03024FF02043C3F880207047014645
:102FA0000020102903D14FF02042506F01E05E4A0B
:102FB0001068704710B5F2B1102807D14FF02043C8
:102FC0005B6E0B434FF02044636632E0B0F5807FC8
:102FD00008D1564B1B6843EA01034FF02044C4F864
:102FE000843026E0524B1B6843EA01034FF0204433
:102FF000C4F8A4301DE0102807D14FF020435B6EC9
:103000008B434FF02044636613E0B0F5807F08D116
:10301000464B1B6823EA01034FF02044C4F8843078
:1030200007E0434B1B6823EA01034FF02044C4F838
:10303000A43010BD10B5024600200023102A03D191
:103040004FF02044636E07E0B2F5807F02D1374C29
:10305000236801E0364C23680B4201D0012000E0D8
:10306000002010BD102807D14FF02042526E8A4335
:103070004FF020435A6613E0B0F5807F08D12B4A09
:10308000126822EA01024FF02043C3F8842007E0CF
:10309000274A126822EA01024FF02043C3F8A42015
:1030A000704770B502460020002300240025102A36
:1030B00003D14FF02046736E07E0B2F5807F02D156
:1030C0001A4E336801E01A4E336803EA010403EA3A
:1030D000D10514B10DB1012000E0002070BD102811
:1030E00008D14FF02042526E22EAD1024FF0204325
:1030F0005A6613E0B0F5807F08D10C4A126822EAC4
:10310000D1024FF02043C3F8842007E0084A126838
:1031100022EAD1024FF02043C3F8A42070470000F8
:10312000BFFF0F00800000A0940000A0840000A05A
:10313000A40000A010B50446CA48844208D1012169
:10314000042000F027FB0021042000F023FB46E0D0
:10315000C548844208D10121082000F01BFB002152
:10316000082000F017FB3AE0C048844208D1012152
:10317000102000F00FFB0021102000F00BFB2EE0D0
:10318000BB48844208D10121202000F003FB00212C
:10319000202000F0FFFA22E0B648844208D1012145
:1031A000402000F0F7FA0021402000F0F3FA16E08A
:1031B000B148844208D10121802000F0EBFA0021BF
:1031C000802000F0E7FA0AE0AC48844207D10121F0
:1031D000801500F0DFFA0021A01500F0DBFA10BD29
:1031E00010B50121084600F0D5FA0021012000F0B9
:1031F000D1FA10BD2DE9F04102460025002600203D
:1032000000230024002791F803C00CF00F0591F86B
:1032100003C01CF0100F03D091F802C04CEA050562
:1032200091F800C0BCF1000F31D0146800202BE0F1
:103230004FF0010C0CFA00F3B1F800C00CEA0306E1
:103240009E4220D183004FF00F0C0CFA03F7BC43D1
:1032500005FA03FC4CEA040491F803C0BCF1280F02
:1032600006D14FF0010C0CFA00FCC2F814C00AE0C1
:1032700091F803C0BCF1480F05D14FF0010C0CFAD6
:1032800000FCC2F810C0401C0828D1D31460B1F86B
:1032900000C0BCF1FF0F34DD546800202EE000F1C7
:1032A000080C4FF0010808FA0CF3B1F800C00CEA62
:1032B00003069E4221D183004FF00F0C0CFA03F756
:1032C000BC4305FA03FC4CEA040491F803C0BCF1CA
:1032D000280F05D100F1080C08FA0CF8C2F8148088
:1032E00091F803C0BCF1480F07D100F1080C4FF072
:1032F000010808FA0CF8C2F81080401C0828CED348
:103300005460BDE8F0814FF6FF71018002218170A9
:103310000421C17070470246002093680B4201D01F
:10332000012000E0002070470146886880B27047A5
:1033300002460020D3680B4201D0012000E00020AB
:1033400070470146C86880B27047016170474161AB
:1033500070470AB1016100E041617047C160704788
:103360004FF480320A43826181618261826982699D
:10337000704702460020424B18684FF68073184091
:1033800040EA021008433E4B186070473D49C8614F
:103390007047F0B50A46002300240021002500F004
:1033A0000046B6F1004F02D1354EF16901E0344ECE
:1033B0007168C0F3034583B200F44016B6F5401FB0
:1033C00008D121F070612E4E766826F070662C4F81
:1033D0007E6012E000F48016B6F5801F06D1032649
:1033E00006FA05F4A14341F0706106E0460D36018E
:1033F00003FA06F6B14341F0706122B1460D360181
:1034000003FA06F6314300F00046B6F1004F02D150
:103410001B4EF16101E01A4E7160F0BD30B5002223
:103420008B071C0F0F2303FA04F2154B08338C1083
:1034300053F824309343124C08348D1044F825304F
:1034400023468C1053F824308C07240F00FA04F420
:1034500023430B4C08348D1044F8253030BD0A4905
:103460000860704700080140000C01400010014056
:103470000014014000180140001C014000200140E0
:103480000000014000002042DC002042DD480068CE
:1034900040F00100DB49086008464068DA4908400E
:1034A000D849486008460068D8490840D5490860AE
:1034B0000846006820F4802008600846406820F430
:1034C000FE0048604FF41F0088607047CD490968CE
:1034D00021F48031CB4A11601146096821F4802122
:1034E0001160B0F5803F03D0B0F5802F0ED106E01B
:1034F000C449096841F48031C24A116007E0C149FA
:10350000096841F4A021BF4A116000E000BF00BF7C
:10351000704710B501460022002300204A11012AFD
:1035200002D1B84C236806E0022A02D1B54C236AC6
:1035300001E0B44C636A01F01F02012494401C4274
:1035400001D0012000E0002010BD38B5002000901F
:103550000024002500BF3120FFF7DBFF054600985F
:10356000401C00900098B0F5A06F01D0002DF2D063
:103570003120FFF7CEFF08B1012400E000242046EF
:1035800038BD014600209F4A106820F0F80040EA4C
:10359000C100106070479E490860704702460020D5
:1035A000984B586820F47C1042EA01031843954B6D
:1035B0005860704796490866704701460020914A56
:1035C000506820F003000843506070478D48406801
:1035D00000F00C007047014600208A4A506820F035
:1035E000F00008435060704701460020854A50684B
:1035F00020F4E06008435060704701460020814A93
:10360000506820F4605040EAC1005060704729B112
:103610007C4A527A02437B4B5A7204E0794A527ACE
:103620008243784B5A7270477A4908607047014666
:103630000020744A506820F44040084350607047AE
:103640000021754A11706F4A82F82010012802D0BB
:10365000042808D103E001216F4A117004E005211C
:103660006D4A117000E000BF00BF70476B490860F1
:1036700070476449096A0143624A116270476749A9
:1036800044390860704730B500210022002400232F
:103690005C4D6D6805F00C0121B1042905D00829A5
:1036A00023D105E05E4D056022E05D4D05601FE021
:1036B000544D6D6805F47012524D6D6805F48034F8
:1036C000022505EB92421CB9564D554305600BE0AF
:1036D0004C4D6D6815F4003F03D0524D55430560C5
:1036E00002E04F4D5543056002E04D4D056000BFBF
:1036F00000BF444D6D6805F0F00109094A4D6B5C4F
:103700000568DD4045603F4D6D6805F4E061090ADC
:10371000454D6B5C4568DD4085603A4D6D6805F44C
:103720006051C90A404D6B5C4568DD40C560354D50
:103730006D6805F44041890B3C4D6B5CC568B5FB79
:10374000F3F5056130BD29B12E4A526902432D4B74
:103750005A6104E02B4A526982432A4B5A617047EE
:1037600029B1284A92690243264B9A6104E0254A0E
:1037700092698243234B9A61704729B1214AD269E9
:103780000243204BDA6104E01E4AD26982431D4B9A
:10379000DA61704729B11B4AD2680243194BDA60DB
:1037A00004E0184AD2688243164BDA60704729B1A8
:1037B000144A12690243134B1A6104E0114A126958
:1037C0008243104B1A6170471449403908607047B2
:1037D0000F49C86470470B49C87170470948406A6F
:1037E00040F0807007494862704701460020054A52
:1037F00092680A4201D0012000E000207047014990
:1038000088727047001002400000FFF8FFFFF6FECC
:1038100000004242D800424220100240800442424E
:1038200000127A0000093D00B4000020C40000200E
:1038300010B50446FE48844208D10121C014FFF7A8
:10384000A9FF0021E014FFF7A5FFC4E0B4F1804F09
:1038500008D101210846FFF7AAFF00210120FFF748
:10386000A6FFB8E0F348844208D101210220FFF707
:103870009EFF00210220FFF79AFFACE0EE48844251
:1038800008D101210420FFF792FF00210420FFF757
:103890008EFFA0E0E948844208D101210820FFF70B
:1038A00086FF00210820FFF782FF94E0E44884426D
:1038B00008D101211020FFF77AFF00211020FFF727
:1038C00076FF88E0DF48844208D101212020FFF7FD
:1038D0006EFF00212020FFF76AFF7CE0DA48844277
:1038E00008D101214014FFF755FF00216014FFF7B4
:1038F00051FF70E0D548844209D10121C804FFF787
:1039000049FF00214FF40020FFF744FF63E0D04857
:10391000844209D101210805FFF73CFF00214FF443
:103920008010FFF737FF56E0CA48844209D10121D1
:103930004805FFF72FFF00214FF40010FFF72AFF83
:1039400049E0C548844208D101214020FFF72FFFFC
:1039500000214020FFF72BFF3DE0C048844208D102
:1039600001218020FFF723FF00218020FFF71FFFA8
:1039700031E0BB48844208D101218015FFF717FFD1
:103980000021A015FFF713FF25E0B648844209D1B6
:1039900001210804FFF7FEFE00214FF48030FFF7FD
:1039A000F9FE18E0B048844209D101214804FFF72C
:1039B000F1FE00214FF40030FFF7ECFE0BE0AB48C6
:1039C000844208D101218804FFF7E4FE00214FF46E
:1039D0008020FFF7DFFE10BD00220288944B984242
:1039E0000ED0994B98420BD0B0F1804F08D0914B3C
:1039F000984205D0904B984202D0904B984204D107
:103A00004FF68F731A404B881A438D4B984207D05C
:103A10008C4B984204D04FF6FF431A40CB881A4390
:103A200002808B8883850B880385814B98420BD05D
:103A3000854B984208D08B4B984205D08A4B9842D0
:103A400002D08A4B984201D10B7A038601238382EC
:103A5000704770B5002400220023058C4FF6FE76D7
:103A600035400584028C8388048B4FF68F752C407B
:103A7000B51E2C400D882C43751E2A400D892A4303
:103A80004D882A436A4DA8420BD06F4DA84208D0FA
:103A9000744DA84205D0744DA84202D0734DA8427F
:103AA00013D14FF6F7752A404D892A434FF6FB751F
:103AB0002A408D882A434FF6FF652B404FF6FF556D
:103AC0002B408D892B43CD892B4383800483CD8864
:103AD0008586028470BD70B5002400220023058C09
:103AE0004FF6EF7635400584028C8388048B48F6C8
:103AF000FF752C404FF6FF452C400D884FF6FF76A2
:103B000006EA05252C434FF6DF752A400D8906EAA3
:103B100005152A434D8806EA05152A43444DA84257
:103B200002D0494DA8421DD14FF67F752A404D89DC
:103B30004FF6FF7606EA05152A434FF6BF752A4071
:103B40008D8806EA05152A434FF6FF352B404FF2C4
:103B5000FF752B408D8906EA85052B43CD8906EA42
:103B600085052B4383800483CD880587028470BD3F
:103B700070B5002400220023058C4FF6FF66354007
:103B80000584028C8388848B4FF68F752C404FF60A
:103B9000FC752C400D882C434FF6FF552A400D89AB
:103BA0004FF6FF7606EA05252A434D8806EA0525E5
:103BB0002A431F4DA84202D0234DA8421DD14FF2E7
:103BC000FF752A404D894FF6FF7606EA05252A4300
:103BD0004FF6FF352A408D8806EA05252A434EF622
:103BE000FF752B404DF6FF752B408D8906EA0515B4
:103BF0002B43CD8906EA05152B4383808483CD882A
:103C00008587028470BD70B5002200230024058CD6
:103C10004EF6FF7635400584038C8488828B48F607
:103C2000FF752A404FF6FF452A400D8820E000002E
:103C3000002C01400004004000080040000C00403F
:103C4000001000400014004000340140004C0140CE
:103C5000005001400054014000180040001C00408A
:103C60000020004000400140004401400048014065
:103C70004FF6FF7606EA05252A434DF6FF752B40E1
:103C80000D8906EA05352B434D8806EA05352B4399
:103C9000FA4DA84202D0FA4DA84208D14BF6FF7562
:103CA0002C408D894FF6FF7606EA85152C438480DB
:103CB0008283CD88A0F84050038470BD828B4FF280
:103CC000FF331A408283828B4FF6FF7303EA01238E
:103CD0001A4382837047F0B50C4615460022002136
:103CE0000026078C4EF6FF7C07EA0C070784828BC0
:103CF000018C4FF6FF7707EA043640F6FF473A405B
:103D00004FF6FF7707EA05273A434FF6FF7707EAB2
:103D100003373A43D94FB8420ED0D94FB8420BD0EF
:103D2000B0F1804F08D0D74FB84205D0D64FB84237
:103D300002D0D64FB84206D14DF6FF77394046F44F
:103D40008057394305E047F6FF57394044F4805720
:103D5000394382830184F0BD828B4FF6F3731A409E
:103D60008283828B0A4382837047F0B50C461546E6
:103D7000002200210026078C4FF6FF6C07EA0C0793
:103D80000784828B018C4FF6FF7707EA04264FF6F3
:103D90000C773A404FF6FF7707EA03172F433A4371
:103DA000B64FB8420ED0B64FB8420BD0B0F1804FEC
:103DB00008D0B44FB84205D0B34FB84202D0B34F89
:103DC000B84206D14FF6FF57394046F48077394361
:103DD00005E04FF2FF57394044F48077394382833E
:103DE0000184F0BD028B4FF2FF331A400283028B35
:103DF0004FF6FF7303EA01231A4302837047F0B5BD
:103E00000C461546002200210026078C4FF6EF7C59
:103E100007EA0C070784028B018C4FF6FF7707EA4D
:103E2000041640F6FF473A404FF6FF7707EA03379C
:103E30003A434FF6FF7707EA05273A438F4FB842D8
:103E40000ED08F4FB8420BD0B0F1804F08D08D4FBD
:103E5000B84205D08C4FB84202D08C4FB84206D140
:103E60004FF6DF77394046F01007394305E04FF64B
:103E70005F77394044F01007394302830184F0BD75
:103E8000028B4FF6F3731A400283028B0A430283BC
:103E90007047F0B50C46154600220021068C4FF6FF
:103EA000FE773E400684028B018C4FF60C76324042
:103EB0007E1C06EA03162E433243704EB0420ED0EB
:103EC0006F4EB0420BD0B0F1804F08D06D4EB04273
:103ED00005D06D4EB04202D06C4EB04206D14FF6C6
:103EE000FD76314044F00106314305E04FF6F576AA
:103EF000314044F00106314302830184F0BD70B5C6
:103F000005460C465D4885420ED05D4885420BD083
:103F1000B5F1804F08D05B48854205D05A488542AC
:103F200002D05A48854200D100E000BF208850B935
:103F30002389A28861882846FFF7ABFFE1882846DD
:103F4000FFF79EFF25E0208804280AD12389A28854
:103F500061882846FFF753FFE1882846FFF742FFB4
:103F600017E0208808280AD12389A288618828467A
:103F7000FFF7FBFEE1882846FFF7EEFE09E0238904
:103F8000A28861882846FFF7A6FEE1882846FFF749
:103F900095FE70BD2DE9F04105460C46002601272F
:103FA000608808B9022600E00026A088012801D117
:103FB000022700E001272088A0B92389A288618810
:103FC0002846FFF766FFE1882846FFF759FF238957
:103FD0003A4631462846FFF712FFE1882846FFF7A8
:103FE00001FF13E02389A28861882846FFF707FFB5
:103FF000E1882846FFF7F6FE23893A4631462846EF
:10400000FFF747FFE1882846FFF73AFFBDE8F08158
:104010000A884B881A438B881A43CB881A430B892A
:104020001A434B891A438B891A43A0F844207047DE
:104030004FF6FF71818000210180C18041800172B3
:1040400070470021018041808180C18001814181D0
:104050008181C181704700210180418001218180DF
:104060000021C18001817047002101804180818051
:10407000C18001814181818170470000002C014095
:10408000003401400004004000080040000C0040E3
:1040900021B1028842F00102028004E002884FF65A
:1040A000FE731A400280704731B1B0F8442042F4E8
:1040B0000042A0F8442005E0B0F84420C2F30E020C
:1040C000A0F8442070471AB183890B43838102E032
:1040D00083898B43838170478182704741EA020361
:1040E000A0F8483070471AB183890B43838102E0FE
:1040F00083898B438381704701894FF6F8721140A1
:10410000018170470A46002101894FF68F731940DB
:1041100011430181704730B504460D4629462046BB
:10412000FFF7F0FF208940F00700208130BD2DE926
:10413000F04104460D4616461F46602D06D13B460B
:10414000012231462046FFF75AFE05E03B46012298
:1041500031462046FFF79DFE29462046FFF7D2FF55
:10416000208940F007002081BDE8F08130B50C4681
:1041700000210189C9B24FF6FF7505EA03251543F1
:1041800025432943018130BD2DE9F04105460E4606
:1041900017469846002443463A4631462846FFF7DC
:1041A000E5FF2C894FF6F870044044F007044FF601
:1041B0008F70044044F070042C81BDE8F081F0B5AC
:1041C00004460D4616461F463B46324629462046C3
:1041D000FFF7CCFF208940F480402081F0BD0185AD
:1041E000828270470A46002101884FF68F7319407A
:1041F000114301807047F0B50C4615461E4600215C
:10420000002200230189028B038C4FF6F877394096
:1042100021434FF6FC473A4040F201173A434FF62C
:10422000DD773B404FF6FF7707EA06172F433B4306
:10423000018102830384F0BD0A460021018B4FF601
:104240008F7319401143018370470A460021018B87
:1042500048F6FF7319404FF6FF7303EA0223194330
:10426000018370470A460021818B4FF68F731940F6
:104270001143818370470A460021818B48F6FF7302
:1042800019404FF6FF7303EA0223194381837047F5
:1042900021B1028842F08002028004E002884FF6D9
:1042A0007F731A400280704721B1828842F0040275
:1042B000828004E082884FF6FB731A408280704748
:1042C00021B1828842F00802828004E082884FF6A1
:1042D000F7731A408280704721B1828842F0010250
:1042E000828004E082884FF6FE731A408280704715
:1042F0000A460021018B4FF6F773194011430183E1
:1043000070470A460021018B4FF2FF7319404FF6A8
:10431000FF7303EA02231943018370470A46002111
:10432000818B4FF6F77319401143818370470A461A
:104330000021818B4FF2FF7319404FF6FF7303EAA0
:1043400002231943818370470A460021018B4FF6EF
:10435000FB7319401143018370470A460021018B0A
:104360004FF6FF3319404FF6FF7303EA0223194358
:10437000018370470A460021818B4FF6FB73194079
:104380001143818370470A460021818B4FF6FF332A
:1043900019404FF6FF7303EA0223194381837047E4
:1043A0000A460021018B4FF67F73194011430183A8
:1043B00070470A460021018BC1F30E014FF6FF73CF
:1043C00003EA02231943018370470A460021818BC7
:1043D0004FF67F7319401143818370470A460021CD
:1043E000818BC1F30E014FF6FF7303EA02231943D9
:1043F000818370470A460021018C4FF6FD731940F6
:104400001143018470470A460021018C4FF6F7736F
:1044100019401143018470470A460021018C4FF670
:10442000DF7319404FF6FF7303EA02131943018447
:1044300070470A460021018C4FF67F7319404FF6F2
:10444000FF7303EA02131943018470470A460021EF
:10445000018C4FF6FF5319404FF6FF7303EA022316
:104460001943018470470A460021018C4FF2FF7303
:1044700019404FF6FF7303EA022319430184704782
:104480000A460021018C4DF6FF7319404FF6FF7369
:1044900003EA023319430184704730B50023012435
:1044A0008C40A3B2048C9C430484048C02FA01F572
:1044B000ADB22C43048430BD30B5002304248C40BD
:1044C000A3B2048C9C430484048C02FA01F5ADB2BF
:1044D0002C43048430BD70B50346002000241846E8
:1044E000183001258D40ACB21D8CA5431D8409B147
:1044F000082909D100EB6100056825F07005056009
:104500000568154305600EE00D1FC5F34E052844F0
:10451000056825F4E045056005684FF6FF7606EA74
:1045200002263543056070BD21B1028842F00202C7
:10453000028004E002884FF6FD731A400280704743
:1045400021B1028842F00402028004E002884FF6A2
:10455000FB731A400280704721B1828842F08002CA
:10456000828004E082884FF67F731A408280704711
:1045700002884FF6F7731A40028002880A430280CD
:10458000704782884FF68F731A40828082880A4370
:104590008280704702894FF6F8731A4002810289BF
:1045A0000A430281704702894FF67F731A400281E5
:1045B00002890A4302817047818470478185704770
:1045C000818670470187704781877047A0F8401047
:1045D000704702884FF6FF431A40028002880A4360
:1045E000028070470146888E70470146088F7047E9
:1045F0000146888F70470146B1F840007047014678
:10460000888C70470146088D704702460020138A47
:104610000B4201D0012000E000207047CA43028213
:10462000704730B50246002000230024158A05EAB1
:104630000103958905EA010413B10CB1012000E0E2
:10464000002030BDCA4302827047000010B5044606
:10465000FB48844209D101218803FFF79BF8002120
:104660004FF48040FFF796F832E0F648844209D1D3
:1046700001214804FFF79BF800214FF40030FFF7B9
:1046800096F825E0F048844209D101218804FFF71B
:104690008EF800214FF48020FFF789F818E0EB48EE
:1046A000844209D10121C804FFF781F800214FF4A9
:1046B0000020FFF77CF80BE0E548844208D1012197
:1046C0000805FFF774F800214FF48010FFF76FF82A
:1046D00010BD2DE9F04786B005460E460024A246DF
:1046E00000BFA1460027B08900B100BF2F462C8A29
:1046F0004CF6FF700440F08804432C82AC894EF6DF
:10470000F3100440B0883189084371890843044399
:10471000AC81AC8A4FF6FF400440B0890443AC82C0
:1047200001A8FEF7B0FFC648874202D1DDF810A00D
:1047300001E0DDF80CA0A88910F4004F08D00AEBC6
:10474000CA0000EB0A1031684900B0FBF1F807E03D
:104750000AEBCA0000EB0A1031688900B0FBF1F8DF
:104760006420B8FBF0F004012009642101FB1089EA
:10477000A88910F4004F08D0322000EBC900B0FB2C
:10478000F1F000F00700044308E0322000EB0910CC
:104790006421B0FBF1F000F00F0004432C8106B05F
:1047A000BDE8F0874FF41651016000218180C1807F
:1047B00001810C21418100218181704710B50246A1
:1047C0000020108A4FF2FF0318400B884C882343C7
:1047D0008C882343CC8823431843108210BD0021CA
:1047E000018041808180C180704721B1828942F47B
:1047F0000052828104E082894DF6FF731A40828163
:104800007047F0B503460024002600250020A1F5DE
:1048100010676A3F00D100BF1846C1F3421401F08F
:104820001F06012707FA06F5012C01D10C3004E020
:10483000022C01D1103000E014301AB107682F4368
:10484000076002E00768AF430760F0BD1AB1838AD2
:104850000B43838202E0838A8B4383827047028A00
:104860004FF6F0731A400282028A0A4302827047AE
:1048700082894FF2FF731A40828182890A438281C2
:10488000704721B1828942F00202828104E082896C
:104890004FF6FD731A4082817047028A4FF6DF732C
:1048A0001A400282028A0A430282704721B1028AB8
:1048B00042F48042028204E0028A4BF6FF731A40FF
:1048C00002827047C1F308028280704701468888DF
:1048D000C0F308007047818941F001018181704770
:1048E000028BD2B20283028B42EA0122028370471A
:1048F000028B02F47F420283028B0A4302837047D9
:1049000021B1828A42F02002828204E0828A4FF63C
:10491000DF731A408282704721B1828A42F010020E
:10492000828204E0828A4FF6EF731A4082827047D7
:1049300021B1828A42F00802828204E0828A4FF624
:10494000F7731A408282704721B1828942F4004293
:10495000828103E08289C2F30E028281704721B115
:10496000828A42F40062828204E0828A4FF2FF73FC
:104970001A4082827047828A4FF6FB731A40828205
:10498000828A0A438282704721B1828A42F00202FF
:10499000828204E0828A4FF6FD731A408282704759
:1049A00002460020B1F5007F00D100BF13880B4202
:1049B00001D0012000E00020704701F40072B2F540
:1049C000007F00D100BFCA430280704770B5024625
:1049D0000024002300250020A1F510666A3E00D1C6
:1049E00000BFC1F3421501F01F03012606FA03F3CD
:1049F000012D02D19689334006E0022D02D1168A9C
:104A0000334001E0968A33400C12012606FA04F482
:104A10001688344013B10CB1012000E0002070BDB5
:104A200010B500220023A1F510646A3C00D100BF3C
:104A30000A1201249440A3B2DC43048010BD00009C
:104A4000003801400044004000480040004C004055
:104A50000050004010B56FF00400FDF7B3FF2D4883
:104A600000682D49B0FBF1F02C4908700846007829
:104A700000EB4001C1EBC0104FF6FF7101EAC0002E
:104A80002749088010BD0146244A12784A434FF056
:104A9000E0235A6100229A611A46126942F001022B
:104AA0001A6100BF4FF0E022106910F0010F02D030
:104AB00010F4803FF6D04FF0E022126922F001029C
:104AC0004FF0E0231A6100229A6170470146144AB0
:104AD00012884A434FF0E0235A6100229A611A4635
:104AE000126942F001021A6100BF4FF0E022106922
:104AF00010F0010F02D010F4803FF6D04FF0E0220A
:104B0000126922F001024FF0E0231A6100229A613B
:104B1000704700000400002000127A00C800002046
:104B2000CA00002010B54FF4A060FDF7FBFE10BDD9
:104B300010B588B0044640F2E730ADF818004720C1
:104B4000ADF814000020ADF81A00ADF8160005A964
:104B50001B48FEF741FF6020ADF804000120ADF8CE
:104B60000600A0B2ADF80A000020ADF80C0001A9C3
:104B70001348FEF76EFF08211148FFF7B9FB01212A
:104B80000F48FFF785FB01210D48FFF781FA08B0B8
:104B900010BD08B501210220FEF7EFFD01210C2018
:104BA000FEF7DEFDC020ADF8000018208DF80300F0
:104BB00003208DF8020069460248FEF71BFB08BD82
:104BC000000400400008014010B586B004460121F1
:104BD0000805FEF7D2FD01211020FEF7C1FD0121DD
:104BE0002020FEF7BDFD4FF48050ADF814000320E7
:104BF0008DF8160018208DF8170005A9FB48FEF760
:104C0000F9FA4FF48050ADF8140010208DF8170019
:104C100003208DF8160005A9F548FEF7EBFA4FF4CE
:104C20008051F348FEF791FB01940020ADF8080095
:104C3000ADF80A00ADF80C00ADF810000C20ADF88E
:104C40000E0001A9EB48FFF744FD0121E948FFF7F9
:104C5000CCFD06B010BD7047E649888000BFE5492D
:104C6000098811F0400FFAD070472DE9FC5F064625
:104C70000C4615460027B846B946BA46BB46002042
:104C800001900090B5F5806F02DB40F2FF3700E045
:104C90002F46B4F5806F02DB40F2FF3800E0A046FB
:104CA0004FEA272907F0FF0A4FEA282B08F0FF00F8
:104CB0000190FF20FFF7D0FFFF20FFF7CDFF304628
:104CC000FFF7CAFF0720FFF7C7FF0320FFF7C4FF66
:104CD0000620FFF7C1FF0198FFF7BEFF5846FFF718
:104CE000BBFF5046FFF7B8FF4846FFF7B5FF06F198
:104CF000100001990844584450444844C0B2009000
:104D00000098C043C0B200900098FFF7A5FF00BF15
:104D1000B848008810F0400FFAD00220FFF7D6FE06
:104D2000BDE8FC9F2DE9FC5F06460C4615460027B2
:104D3000B846B946BA46BB46002001900090B5F58A
:104D4000806F02DB40F2FF3700E02F46B4F5806F42
:104D500002DB40F2FF3800E0A0464FEA272907F0C7
:104D6000FF0A4FEA282B08F0FF000190FF20FFF711
:104D700073FFFF20FFF770FF3046FFF76DFF07203E
:104D8000FFF76AFF0320FFF767FF1E20FFF764FFAE
:104D90000198FFF761FF5846FFF75EFF5046FFF7A7
:104DA0005BFF4846FFF758FF06F1280001990844C9
:104DB000584450444844C0B200900098C043C0B228
:104DC00000900098FFF748FF00BF8A48008810F065
:104DD000400FFAD00220FFF779FEBDE8FC9F2DE9D5
:104DE000F04F8BB081460C4615461E46DDE914781F
:104DF0004FF0000AD34600200A90099008900790CF
:104E00000690059004900390029001900090A346B4
:104E1000AA460597CDF818804FEA2A200A900AF092
:104E2000FF0009904FEA2B2008900BF0FF0007903D
:104E3000DDF818804FEA28200490DDF8188008F08B
:104E4000FF000390059F38120290059FF8B2019071
:104E5000FF20FFF701FFFF20FFF7FEFEFE20FFF718
:104E6000FBFE0E20FFF7F8FE8320FFF7F5FE1E2065
:104E7000FFF7F2FE0420FFF7EFFE4846FFF7ECFED7
:104E80000798FFF7E9FE0898FFF7E6FE0998FFF795
:104E9000E3FE0A98FFF7E0FE3046FFF7DDFE0198DB
:104EA000FFF7DAFE0298FFF7D7FE0398FFF7D4FE6C
:104EB0000498FFF7D1FE09F2B11081190798014457
:104EC00008980144099801440A9801440198014452
:104ED000029801440398014404980844C0B2009029
:104EE0000098C043C0B200900098FFF7B5FE00BF25
:104EF0004048008810F0400FFAD00220FFF7E6FD8E
:104F00000BB0BDE8F08F2DE9FC5F06460C46154658
:104F10000027B846B946BA46BB460020019000902B
:104F20002F46A0464FEA272907F0FF0A4FEA282B11
:104F300008F0FF000190FF20FFF78EFEFF20FFF733
:104F40008BFE3046FFF788FE0720FFF785FE042022
:104F5000FFF782FE1E20FFF77FFE0198FFF77CFE21
:104F60005846FFF779FE5046FFF776FE4846FFF7B2
:104F700073FE06F1290001990844584450444844FE
:104F8000C0B200900098C043C0B200900098FFF7F4
:104F900063FE00BF1748008810F0400FFAD00220CF
:104FA000FFF794FDBDE8FC9F10B50024FF20FFF73C
:104FB00053FEFF20FFF750FEFE20FFF74DFE0220BC
:104FC000FFF74AFE0520FFF747FE0524E043C4B281
:104FD0002046FFF741FE00BF0648008810F0400F52
:104FE000FAD00220FFF772FD10BD00000010014052
:104FF000001401400050004070B504460025FF2019
:10500000FFF72AFEFF20FFF727FE2046FFF724FECA
:105010000220FFF721FE0120FFF71EFEE01CC5B2B3
:10502000E843C5B22846FFF717FE00BF1D480088B9
:1050300010F0400FFAD00220FFF748FD70BD10B508
:1050400040F2FF3200210E20FFF70FFE40F2FF3248
:1050500000210D20FFF709FE40F2FF3200210C2055
:10506000FFF703FE40F2FF3200210B20FFF7FDFDAA
:1050700040F2FF3200210420FFF7F7FD40F2FF323B
:1050800000210320FFF7F1FD40F2FF320021022052
:10509000FFF7EBFD40F2FF3200210120FFF7E5FDB5
:1050A00010BD000000500040014600BF704700BF27
:1050B0005B4A128812F0400FFAD0C2B2584B1B1D47
:1050C0001A8070475649098811F0200F34D054498E
:1050D000091D0988C8B25349097811F0800F2BD1F6
:1050E0005049097811F0400F0CD00A2803D0002154
:1050F0004C4A117020E04B49097841F08001494A3F
:10510000117019E00D2806D14649097841F0400197
:10511000444A117010E04349097801F03F01424AC6
:10512000505440490978491C3E4A1170114609788B
:105130003F2901DD0021117070472DE9F84F054628
:105140000E46300100F00AFE8146384905FB01F0A9
:1051500000F004FE8246494600F01EFD0746384630
:1051600000F0DCFD84B2204600F0F8FD83463946AD
:1051700000F0D4FE82464FF0834100F003FE8146EA
:1051800000F0CCFD80464FF6FF7000EA041404EBFB
:10519000080084B22648806940F0040024498861F0
:1051A0000846806940F4804088612248006820F405
:1051B0007F60204908600846006840F40B60086082
:1051C0001B48C06840F480401949C8600846C06860
:1051D00020F48040C860124808300480001D008818
:1051E00042F20C0108430E490C3108800846008841
:1051F00040F4807008800846008840F02000088055
:1052000025208DF8000003208DF801008DF80200A4
:1052100001208DF803006846FDF789FBBDE8F88F93
:1052200000380140CC000020D400002040420F0094
:105230000010024004080140704700000FB4044908
:1052400010B503AA029800F0FDF810BC5DF814FB3D
:10525000D00000202DE9F0410E46044600202062D7
:105260002046E168884730B3252805D0D4E90121DC
:105270009047206A401CF2E7E168204600278847F3
:10528000050018D0A5F14100192802D820354FF4A7
:1052900000673246294620462760FAF783FF40B16F
:1052A000012804D0F61D26F007060836D8E7361D7B
:1052B000D6E72846DAE7206ABDE8F0812DE9F0411B
:1052C0000646002410687529314616A511D0AFF3A3
:1052D0000080002803DAC0F1000013A507E0316860
:1052E0008A0701D511A502E0490704D510A50124BC
:1052F00001E0AFF3008000210A2306F1240707E054
:10530000B0FBF3F203FB1200303078541046491C16
:105310000028F5D123462A463046BDE8F04100F08A
:1053200034B80000000000002D0000002B00000039
:10533000200000004FF0000200B513469446964648
:10534000203922BFA0E80C50A0E80C50B1F1200198
:10535000BFF4F7AF090728BFA0E80C5048BF0CC046
:105360005DF804EB890028BF40F8042B08BF7047A4
:1053700048BF20F8022B11F0804F18BF00F8012B16
:10538000704770477047704770472DE9F0470D46EA
:1053900099469246044600F124080168880604D51F
:1053A000E06921F01001216000E00120A84202DD47
:1053B000A0EB050700E00027A16907EB050202EB5F
:1053C0000900A1EB0000A0612078C00602D42046AD
:1053D000AFF30080002608E0D4E901211AF80600A6
:1053E0009047206A401C761C20624E45F4DB2078F2
:1053F000C0060AD52046AFF3008006E0D4E90121BB
:1054000030209047206A401C2062381EA7F1010717
:10541000F4DC07E0D4E9012118F805009047206A80
:10542000401C2062281EA5F10105F3DC2046AFF3E5
:1054300000802078000602D50220BDE8F087012018
:10544000FBE70000074B70B50D467B4400F011F8F8
:105450000446284600F020F810B14FF0FF3070BD30
:10546000204670BD61FCFFFF01694A1C026108789B
:10547000704700B58FB0CDE9013100210591054994
:105480007944CDE9031011466846FFF7E3FE0FB0FB
:1054900000BD0000E5FFFFFF007B00F080007047CB
:1054A000754600F029F8AE4605006946534620F0DF
:1054B0000700854618B020B5FDF722FABDE8204068
:1054C0004FF000064FF000074FF000084FF0000BC0
:1054D00021F00701AC46ACE8C009ACE8C009ACE873
:1054E000C009ACE8C0098D4670470446AFF30080A0
:1054F0002046FAF769FE00000048704714010020BA
:1055000010B591EA030F48BF83F0004300F1D48146
:10551000841A71EB030C05D2121943EB0C03001B28
:1055200061EB0C01DFF824E14FEA1154A4EB135CAA
:105530001EEA430F18BF9EEA445F73D023EA0E03AE
:10554000DCF1200E21EA045143F4801332D322FA15
:105550000CFE10EB0E0023FA0CFE41EB0E01CCF119
:10556000200E03FA0EFE10EB0E0051F10001B1F512
:10557000801FCCF1200E32D201EB045112FA0EF250
:10558000BDE8104058BF7047401C38BF5FEA420278
:1055900018BF7047002814BF20F0010041F100013E
:1055A0004FEA410313F5001F38BF7047A1F1C04116
:1055B00000F074B9012A43EB0302ACF1200CDCF1DA
:1055C0001F0E32BF4FF0000E23FA0CF310EB030056
:1055D00041EB0451B4EB115FD0D0A1EB045101F5C4
:1055E000801149085FEA300001EB04510ED350F1FD
:1055F000000038BF12FA0EFE08D1BDE81040C9E71E
:10560000401C38BF5FEA4202CAD1C3E7BDE8104080
:105610004FEA410313F5001F38BF7047A1F1C041A5
:1056200000F03CB99EEA445F08D011EA5E0FBDE885
:10563000104004BF01F0004100207047BDE8104059
:1056400070B500F0DDF800BF64FBBE3E0000E0FF77
:105650004FEA1153A3F58063D3F11E03A8BFD3F122
:10566000200C08DB4FF0004242EAC12252EA5052BD
:1056700032FA03F0704709420BD4102BC4BF00204C
:10568000704703F5787CBCF1FF3F05D04FF0FF3049
:1056900070474FF00000704770B500F0B1F800BFE0
:1056A0004992248000207047F0E70000DFF848C1ED
:1056B00070B51CEA111E1EBF1CEA13159EEA0C0FE2
:1056C00095EA0C0F00F06F8081EA030423EA4C1383
:1056D0004EEAD47E21EA4C1141F4801143F4801348
:1056E000AE44A1FB024CA0FB0365AEF17F7E3619F0
:1056F00055EB0C05A1FB034C4CF10003A0FB021C75
:1057000016EB0C06654153F10003094218BF46F041
:10571000010613F4007F0BD14FEA03314FEA053045
:10572000340341EA155140EA16506FF003020AE0D3
:105730004FEAC3214FEAC520F40241EA555140EA3D
:1057400056506FF0020202EB2E4201EB025585EA41
:10575000CE710AD05FEA440C18BF24F0004450F127
:10576000000041F1000120EAD47040F2FE7C624565
:1057700000D270BDA84214BF4FF080444FF04044A7
:10578000002E08BF0024BEF1806FA8BFA1F1C04168
:10579000BDE8704080F282804FF0000001F1C0410E
:1057A00001F0004170479EEA0C0F0CEA131518BF78
:1057B00095EA0C0F06D04FF0000081EA030E0EF0C0
:1057C000004170BD00F01CF88900013E00F007B8F0
:1057D00000F009B84FEA430C5FEA5C5C08D081EA4C
:1057E000030100F05BB84FEA410C5FEA5C5CF6D164
:1057F0004FF00000014970470000FF070000F87FEC
:105800000EF1020E2EF0030E5EF8046B364205D444
:10581000012A43EB030515F5001F12D8012841EBBF
:10582000010C1CF5001F0CD80ED14FEAD17C15F5E8
:10583000001F0CEB4C0C0CF1020C08BF4CEBD37CA2
:1058400004E04FF0080C01E04FEAD37C0CEB4C0570
:1058500026FA05F606F00706B6F1040C06D20EEBA2
:10586000860CBDE870404CF0010C6047DFE80CF09E
:10587000090B02024FF000414FF00000A1F500219A
:1058800070BD19461046012851EB010418BFD4F52C
:10589000001484BF002001F0004170BD0808A0F58D
:1058A00000114FEA3101704710B591EA030F48BF6C
:1058B00083F000433FF52CAE841A71EB030C07D242
:1058C00012198CF0004C43EB0C03001B61EB0C0134
:1058D000DFF8A4E14FEA1154A4EB135C1EEA430F76
:1058E00018BF9EEA445F00F0B08023EA6E03524284
:1058F00021EA0451C3EB6E0338BF5B1EDCF1200EBE
:1059000025D322FA0CFE10EB0E0043FA0CFE41EBFD
:105910000E01CCF1200E03FA0EFE10EB0E0051F139
:105920000001CCF1200E29D412FA0EF201EB045141
:10593000BDE8104058BF7047401C1CBFB2F1004F7B
:10594000704700280CBF491C20F00100704712EB83
:10595000020E43EB030218BF4FF0010E4EEA420263
:10596000ACF1200CDCF11E0E54D943FA0CFE10EB06
:105970000E0051F1FF31CCF11E0ED5D50EF1010E06
:1059800012FA0EFE404141EB010101EB445C5FEA7B
:105990005C5C10D910EBDE7001EB045138BFBEF136
:1059A000004FBDE8104018BF704700280CBF491CCD
:1059B00020F00100704730D24FEAD42C11F50011CD
:1059C00024F400641BD0B1FA81F20B3AA41AA41E8D
:1059D000D2F12003914030FA03F31943904001EBD8
:1059E000CC71002C01EB0451BDE81040A8BF7047FA
:1059F00001F1C0414FF0000001F000417047B0FAE2
:105A000080F310FA03F100D110BDE41A173C4805E9
:105A1000C90AE4E701EB045110BD491001EB045140
:105A2000BDE810404FEA300002E04FF0000170473F
:105A30004A0008BF0042F8D0B2F5001F28BF7047E7
:105A400001F000414FF0000070479EEA445F07D02C
:105A500011EA5E0FBDE8104004BF0021002070472E
:105A6000BDE8104070B5FFF7CBFE00BF40DFF63E4B
:105A700083F00041104670470000E0FF43004FEA0A
:105A8000D30C4FEA3C0C43401FBF40070CF1605160
:105A900013F0FE4F70471CF0006F03D100200CF094
:105AA000004170470CF0004343EA507010B540EAE3
:105AB000CC0000F0E8F900BF000000924FEA0001BE
:105AC000FFF7ECBE4FF000414FF00000A1F50021C0
:105AD0007047000090EA010F48BF81F0004100F1DB
